:020000040800F2
:1000000000000220B57000081D7000081F70000875
:10001000217000082370000825700008000000000F
:100020000000000000000000000000002770000831
:1000300029700008000000002B7000082D700008D7
:1000400005710008057100080571000805710008B8
:1000500005710008057100080571000805710008A8
:100060000571000805710008057100080571000898
:100070000571000805710008057100080571000888
:100080000571000805710008057100080571000878
:100090000571000805710008057100080571000868
:1000A0000571000805710008057100080571000858
:1000B0000571000805710008057100080571000848
:1000C0000571000805710008057100080571000838
:1000D0000571000805710008057100080571000828
:1000E0000571000805710008000000000571000896
:1000F0000571000805710008057100080571000808
:1001000005710008317000080571000805710008CC
:1001100005710008057100080571000805710008E7
:1001200005710008057100080571000805710008D7
:1001300005710008057100080571000805710008C7
:1001400000000000000000000000000000000000AF
:1001500005710008057100080571000805710008A7
:100160000571000805710008057100080571000897
:100170000571000805710008057100080000000005
:100180000571000805710008057100080571000877
:100190000571000805710008057100080571000867
:1001A0000571000805710008057100080571000857
:1001B0000571000805710008057100080571000847
:1001C0000571000805710008057100080571000837
:1001D0000571000805710008057100080571000827
:1001E0000571000805710008057100080571000817
:1001F0000571000805710008057100080571000807
:1002000005710008057100080571000805710008F6
:1002100005710008057100080571000805710008E6
:100220000571000805710008057100080000000054
:100230000571000805710008000000000571000844
:1002400005710008057100080571000805710008B6
:1002500005710008057100080571000805710008A6
:100260000571000805710008057100080571000896
:100270000571000805710008057100080000000004
:1002800005710008057100080571000800000000F4
:080290000000000005710008E8
:1002980010B5054C237833B9044B13B10448AFF3B8
:1002A80000800123237010BDD4000020000000004E
:1002B8006071000808B5034B1BB103490348AFF34D
:1002C800008008BD00000000D80000206071000810
:1002D800034613F8012B002AFBD1181A013870477E
:1002E80053B94AB9002908BF00281CBF4FF0FF3195
:1002F8004FF0FF3000F07AB9ADF1080C6DE904CE8B
:1003080000F006F8DDF804E0DDE9022304B07047E8
:100318002DE9F0478C460D460446089E002B51D126
:100328008A4217466DD9B2FA82FEBEF1000F0BD091
:10033800CEF1200C01FA0EF520FA0CFC02FA0EF7A9
:100348004CEA050C00FA0EF44FEA174A250CBCFBE0
:10035800FAF81FFA87F90AFB18CC45EA0C4508FB9E
:1003680009F3AB420AD9ED1908F1FF3280F0238175
:10037800AB4240F22081A8F102083D44ED1AA4B234
:10038800B5FBFAF00AFB105544EA054400FB09F9ED
:10039800A14509D9E41900F1FF3380F00A81A1458C
:1003A80040F2078102383C44A4EB090440EA0840C3
:1003B8000021002E61D024FA0EF40023346073600B
:1003C800BDE8F0878B4207D9002E54D0002186E87B
:1003D80021000846BDE8F087B3FA83F1002940F010
:1003E8008E80AB4202D3824200F2FA80841A65EB17
:1003F80003050120AC46002E3FD086E81010BDE86A
:10040800F08712B90127B7FBF2F7B7FA87FEBEF1FA
:10041800000F34D1EB1B3A0C1FFA87FC0121B3FB08
:10042800F2F8250C02FB183345EA03450CFB08F3E8
:10043800AB4207D9ED1908F1FF3002D2AB4200F206
:10044800D1808046ED1AA3B2B5FBF2F002FB10553D
:1004580043EA05440CFB00FCA44507D9E41900F164
:10046800FF3302D2A44500F2B8801846A4EB0C046E
:1004780040EA08409DE731463046BDE8F087CEF1B6
:10048800200405FA0EF307FA0EF720FA04F83A0CDE
:1004980025FA04F448EA0308B4FBF2F14FEA1845D8
:1004A80002FB11441FFA87FC45EA044501FB0CF3E3
:1004B800AB4200FA0EF409D9ED1901F1FF3080F0D2
:1004C8008A80AB4240F2878002393D44EB1A1FFA1A
:1004D80088F5B3FBF2F002FB103345EA034500FB55
:1004E8000CF3AB4207D9ED1900F1FF386FD2AB42DC
:1004F8006DD902383D44EB1A40EA01418FE7C1F15A
:10050800200722FA07F88B4005FA01F448EA0303AA
:1005180020FA07FE4FEA134CFD404EEA040EB5FBE5
:10052800FCF94FEA1E440CFB19551FFA83F844EAFC
:10053800054509FB08F4AC4202FA01F200FA01FA97
:1005480008D9ED1809F1FF3043D2AC4241D9A9F1DD
:1005580002091D442D1B1FFA8EFEB5FBFCF00CFB97
:1005680010554EEA054400FB08F8A04507D9E418E1
:1005780000F1FF3529D2A04527D902381C4440EAAA
:100588000940A4EB0804A0FB02894C45C6464D4629
:1005980015D312D056B1BAEB0E0364EB050404FA76
:1005A80007F7CB401F43CC40376074600021BDE89B
:1005B800F0871846F8E69046E0E6C245EAD2B8EB7E
:1005C800020E69EB03050138E4E72846D7E7404601
:1005D80091E78146BEE7014678E702383C4445E7A3
:1005E800084608E7A8F102083D442BE7704700BF1A
:1005F80038B50F4B0546187808B9012038BD4FF4B7
:100608007A730C4AB3FBF0F31068B0FBF3F000F018
:10061800CFF804460028F0D10F2DEED8024629461F
:100628004FF0FF3000F07EF8034B20461D6038BDC8
:10063800000000200C0000200400002010B503205A
:1006480000F05EF800F096FF0F49104A8B69C3F37B
:100658000323D35C03F01F03D8408B6903F00F0317
:10066800D35C0B4A03F01F0320FA03F31360094B12
:1006780018600020FFF7BCFF044618B906F046FBD7
:10068800204610BD0124FBE700440258DC72000834
:10069800100000200C000020034A044B11681B784E
:1006A8000B441360704700BF2401002000000020A5
:1006B800014B1868704700BF2401002038B5044674
:1006C800FFF7F6FF0546631C1EBF044B1B78E418B2
:1006D800FFF7EEFF401B8442FAD838BD0000002027
:1006E800014B1868000C70470010005C034A5368FF
:1006F80023F4600318435060704700BF000400589B
:10070800074A0002D36800F4E06023F4E0631B04A6
:100718001B0C43F0BF6343F400330343D3607047BB
:1007280000ED00E0194B30B5DC68C4F30224C4F1D5
:100738000703251D042B28BF0423062D4FF00105B0
:100748008CBF033C002405FA03F3002803F1FF33B0
:1007580001EA030101FA04F105FA04F404F1FF3493
:1007680002EA040242EA01024FEA021207DB00F140
:100778006040D2B200F5614080F8002330BD00F03F
:100788000F00D2B2024B1A5430BD00BF00ED00E09A
:1007980014ED00E0002808DB4209012300F01F00E7
:1007A80003FA00F0014B43F82200704700E100E033
:1007B8000138B0F1807F0AD2064BF021064A586012
:1007C800002082F82310072298601A6070470120E1
:1007D800704700BF10E000E000ED00E08B680A6899
:1007E80091F804C01A430B7C002B2DE9F04F08BF89
:1007F8004FF4002385B018BF002391F80CE04F7B1D
:1008080000934B7C8E7B002BCD7B8C7C0CBF4FF4F4
:100818000033002391F81C9001934B6991F81DB0A7
:100828001A438B6913438A7F002A0CBF4FF48062F6
:1008380000220292CA7F039291F82020002A0268BF
:10084800486AD2F800A008BF4FF4807843EA000352
:10085800C86A2AF07F4A18BF4FF00008034303987C
:100868002AF47B0A2AF4FE4A2AF07C0A43EA0A039D
:1008780043EACC6343EACE5343EA875343EA4653F9
:1008880043EA055343EA044343EA093343EACB23E3
:1008980091F828B043EA4023009843EA0B13034336
:1008A800019803430298034343EA08031360CE6B9D
:1008B80091F8323091F83870002B536891F8305025
:1008C80023F07C5391F831400CBF4FF48030002066
:1008D80023F4EF2323F4FF6323F0070343EA46637B
:1008E8004E6B33438E6C43EA076343EA85430D6DD1
:1008F80043EA444391F854400343486C5360D36837
:1009080023F4877323F00103034391F8400043EA7B
:100918000023D36091F84C30002B136F23F0F203BF
:100928000CBF802000201B041B0C43EA06432B430A
:10093800CD6D43EA440391F8614003431367D2F84D
:10094800900091F8563020F00300034391F85500C9
:1009580043EA4003886DC2F89030D2F8003D23F096
:1009680072030343C2F8003D91F8603091F86210B9
:10097800002BD2F8303D23F07B030CBF4020002031
:100988002B4343EA041343EAC1030343C2F8303D4F
:1009980005B0BDE8F08F0000026802F580500368DA
:1009A80023F4F04330B523F002030C680D79234398
:1009B80041F2040403600B7B1059DB0320F4504020
:1009C80043EA05338D6820F001002B430343487B3D
:1009D800135102F588540B6A256843EA004310480E
:1009E80028400343087D236041F204144B7F1559C6
:1009F8001B0343EA0013086903430A4828400D7F94
:100A08000343135141F208148B69105943EAC57323
:100A180020F0004121F47C110B43135130BD00BF7D
:100A280000C0FEFFEFEFC0FF38B503680546D3F8F6
:100A3800004200F069FF124B124A24F47064034428
:100A4800934205D844F400742B68C3F8004238BDBB
:100A58000D4B0E4A0344934202D844F44074F3E722
:100A68000B4B0C4A03449342EED90B4B0B4A0344FD
:100A7800934294BF44F4807444F48064E4E700BF74
:100A880000D3CEFEBFE1E40040F1E9FD3F787D01EF
:100A980000796CFCFF596202001F0AFA7FF0FA0223
:100AA80070B50546A4B0002800F0BD80436D0BB9B1
:100AB80006F03EF92323287A6B65864BD3F8F42099
:100AC80042F00202C3F8F420D3F8F43003F0020332
:100AD8000193019B002840F09880FFF707FE2B68E0
:100AE80003F580531A6842F001021A60FFF7E0FD2F
:100AF80006462B6803F580531C6814F0010440F087
:100B080087802846FFF790FF2E6800F0FDFE724BA5
:100B18000BA914948DF849408DF84B408DF854403A
:100B28008DF864401A948DF88D408DF88E408DF8BC
:100B380038400D948DF83E408DF848401F941D9420
:100B480016948DF86C408DF882408DF85D40B0FBAE
:100B5800F3F04FF40053013811934FF4C363C6F810
:100B6800DC0001261893202328468DF83B60229349
:100B78004FF040538DF830600B934FF480438DF85D
:100B88005E60109302238DF83A608DF88C608DF8C2
:100B98003D608DF84A608DF84C608DF8394021939E
:100BA8008DF880408DF881408DF85C408DF83C6070
:100BB8001C948DF87860FFF711FE4FF4001302A91A
:100BC80028468DF80C60089306934FF40673049634
:100BD8000A9302948DF824408DF815408DF814403E
:100BE8008DF81C408DF82540FFF7D6FE2B68686904
:100BF80003F588510A6822F4E01242F400220A60E0
:100C080010F0030111D0EE650BE04FF4000064E72B
:100C1800FFF74EFD801BB0F5FA7F7FF66AAF04231D
:100C2800EB65E0236B65012052E041F208141A5984
:100C380022F4FF4222F07E0242EA4002E8681A519A
:100C480000F1600605F118040246116051609160D8
:100C5800D16044F8042B1832B242F6D1A96241F2AD
:100C68002C1203210024995041F21412296998503A
:100C780003F5895201F16006106005F12C000A465F
:100C8800146054609460D4601461546140F8042B7B
:100C98001832B242F4D1032041F23012EC632C64D2
:100CA8006C64EC64AC64985041F21C1200209950BA
:100CB80001F5D86141F2281299506A689188C3F801
:100CC80000131268C3F804231023EC656B65AB6549
:100CD80024B070BD0044025840420F002DE9F04F87
:100CE8000B6885B0DFF8C8814FF0B0490193002345
:100CF800DFF8C0C1019ADA4002D105B0BDE8F08F33
:100D08000127019A9F4012EA070500F0BB804A6854
:100D18005E0022F0100E0EF1FF34012C14D84FF0B3
:100D2800030AD0F808B00AFA06F42BEA040ACC68D9
:100D3800B44044EA0A048460446824EA0707C2F31A
:100D480000149C40274347600324C768BEF1020F84
:100D580004FA06F46FEA040407EA040A8F6807FA3B
:100D680006F747EA0A07C76016D14FEAD30A03F025
:100D7800070B4FF00F0E00EB8A0A4FEA8B0BDAF8DD
:100D880020700EFA0BFE27EA0E0E0F6907FA0BF712
:100D980047EA0E07CAF8207007683C4002F00307CC
:100DA80007FA06F634430460D4006BD5D8F8F4404B
:100DB80023F0030603F003074FF00F0E44F002047C
:100DC80006F1B046BF00C8F8F44006F58066D8F8CA
:100DD800F44004F002040394039C0EFA07F4D6F8D6
:100DE80008A02AEA040E314CA0424DD004F58064D4
:100DF800A0424BD004F58064A04249D004F5806439
:100E0800A04247D004F58064A04245D004F5806430
:100E1800A04243D004F58064A04241D004F5806428
:100E2800A0423FD004F58064A0423DD004F5806420
:100E3800A04214BF0A240924BC40D70344EA0E0484
:100E4800B4606FEA0506DCF8004054BF34402C4318
:100E58009703CCF80040DCF8044054BF34402C43DE
:100E6800D7024FF0B047CCF80440D9F8004054BF3F
:100E780034402C4392023C607C6854BF34402C437D
:100E8800C9F80440013335E70024D5E70124D3E746
:100E98000224D1E70324CFE70424CDE70524CBE7D8
:100EA8000624C9E70724C7E70824C5E70000025855
:100EB80000440258800000580369194214BF0120F9
:100EC800002070470AB1816170470904FBE7436954
:100ED80031EA030308BF090481617047F0B504468D
:100EE8008BB060B390F8BD33056803F0FF021BB9FF
:100EF80080F8BC2306F04CF803236E46271D84F8BF
:100F0800BD33EB6B254613F4807355F8100B08BFFF
:100F1800236104F0C0FA0FCD0FC60FCD0FC695E8B8
:100F28000300254686E8030097E80E0055F8100BE5
:100F380004F070FA064620B1022384F8BD33012577
:100F480054E00146206804F0ACFA3046D4F804E0D6
:100F58001C264FF0010C0146C2B2013096451BD841
:100F680000231C261946D8B20133864522D80FCD56
:100F78006E460FC60FCD0FC695E8030086E803003E
:100F880097E80E00206804F0CDFA0123054600B367
:100F9800022284F8BD23D2E706FB024383F83DC052
:100FA80083F83C20A3F8422083F83F1059649964E1
:100FB8001965D1E706FB004282F8FD1182F8FC01B1
:100FC80082F8FF11C2F80412C2F80812C2F810120F
:100FD800C9E784F8380084F8BD33636A012B02D16D
:100FE800204600F006F8206804F054FB28460BB0B1
:100FF800F0BD012102680346C0F8FC13002083F805
:10100800F403936943F000639361536D43F0805395
:1010180043F003035365704738B5104CE36813F089
:10102800040FE36805D103F00703181A18BF01205D
:1010380038BD23F007031843E060FFF739FB054686
:1010480063689B0401D5002038BDFFF731FB401BC6
:10105800B0F57A7FF4D9012038BD00BF00480258A6
:10106800024AD36843F08073D3607047004802583F
:10107800F8B5044608B90120F8BD0368D8075AD462
:101088002368990700F1A7802368DA0623D5A94BBE
:101098001A69996A02F03802082A07D0182A40F01B
:1010A800FB8001F00302012A40F0F6801B68DB0593
:1010B80002D5E369802BDED1FFF712FB41F203036F
:1010C8009C4A9842216A00F2E080536823F0F84372
:1010D80043EA816353602368190700F11681236886
:1010E8009A0600F13C8123685D071ED5924D2B6856
:1010F80043F480732B60FFF7DBFA06462B68DA05AA
:1011080040F15281A3688B4D012B40F054812B6F25
:1011180043F001032B6741F28835FFF7C9FA854E82
:101128000746336F9B0740F16C81606A002840F0E6
:101138006F810020F8BD7F4B1A69996A02F0380266
:10114800102A05D0182A0AD101F00302022A06D172
:101158001B689A0394D56368002B91D18BE7636869
:10116800744DB3F5803F11D12B6843F480332B6065
:10117800FFF79EFA6F4D06462B689B0380D4FFF756
:1011880097FA801B6428F7D90320F8BDA3B92B6808
:1011980023F480332B602B6823F480232B60FFF724
:1011A80087FA06462B689F037FF56AAFFFF780FA38
:1011B800801B6428F6D9E7E7B3F5A02F2B6803D185
:1011C80043F480232B60CFE723F480332B602B6814
:1011D80023F48023CBE7574B1A69996A12F0380237
:1011E80003D0182A1BD18E0719D11B685D0703D5B8
:1011F800E368002B3FF43FAFFFF772FA41F20303B5
:101208004C4A98422169536895BF23F47C3323F0F4
:10121800FE4343EA013343EA0163536034E7454D33
:10122800E2682B680AB323F0190313432B60FFF716
:101238003FFA06462B68580711D5FFF751FA41F2D5
:101248000303226998426B6895BF23F47C3323F02B
:10125800FE4343EA023343EA02636B6014E7FFF795
:1012680027FA801B0228E5D98EE723F001032B60BB
:10127800FFF71EFA06462B6859077FF505AFFFF7FB
:1012880017FA801B0228F6D97EE7D36823F07C532F
:1012980043EA0163D3601EE7E369264D23B32B6855
:1012A80043F080032B60FFF703FA06462B68DF053F
:1012B8000DD5FFF715FA41F20303226A98420CD8BC
:1012C8006B6823F0F84343EA82636B6003E7FFF738
:1012D800EFF9801B0228E9D956E7EB6823F07C5325
:1012E80043EA0263EB60F6E62B6823F080032B6089
:1012F800FFF7DEF906462B68D8057FF5ECAEFFF759
:10130800D7F9801B0228F6D93EE76369094DABB1CE
:101318006B6F43F001036B67FFF7CAF906466B6F03
:101328009B073FF5DCAEFFF7C3F9801B0228F6D90F
:101338002AE700BF00440258004802586B6F23F0A8
:1013480001036B67FFF7B4F906466B6F9F077FF5DC
:10135800C6AEFFF7ADF9801B0228F6D914E7A369DA
:10136800834D83B12B6843F480532B60FFF7A0F9BA
:1013780006462B6898043FF5B6AEFFF799F9801B2F
:101388000228F6D900E72B6823F480532B60FFF777
:101398008FF906462B6899047FF5A5AEFFF788F903
:1013A800801B0228F6D9EFE6FFF782F9801B642834
:1013B8007FF6A4AEE8E6B3B92B6F41F2883723F085
:1013C80001032B672B6F23F004032B67FFF770F9DA
:1013D80006462B6F98077FF5A8AEFFF769F9801BC3
:1013E800B842F6D9D0E6052B2B6F03D143F004039E
:1013F8002B678CE623F001032B672B6F23F0040384
:1014080088E6FFF755F9C01BA8427FF68AAEBBE60F
:10141800574D2B6903F03803182B7AD02B68022814
:1014280023F080732B6067D1FFF742F906462B68DB
:1014380099015BD4AB6AA26A23F47C7323F003039B
:101448001343E26A43EA0213AB62636BA26B013B8C
:10145800013A5B0212049BB202F4FE021343226BB0
:10146800013AC2F308021343E26B013A120602F092
:10147800FE4213432B63EB6A23F00103EB626B6BB1
:10148800A26C23F47F4323F0F80343EAC2036B639F
:10149800EB6A226C23F00C031343EB62EB6A626C79
:1014A80023F00203324C1343EB62EB6A43F48033BC
:1014B800EB62EB6A43F40033EB62EB6A43F480239C
:1014C800EB62EB6A43F00103EB622B6843F0807335
:1014D8002B60FFF7EDF8054623689A013FF529AE22
:1014E800FFF7E6F8401B0228F6D94DE6FFF7E0F8CB
:1014F800801B02289BD947E6FFF7DAF804462B68D9
:101508009B017FF516AEFFF7D3F8001B0228F6D92A
:101518003AE60128AA6A2B6B28D002F00301A06AD8
:1015280081427FF4A8ADC2F30512E16A8A427FF4D2
:10153800A2AD226BC3F30801013A91427FF49BAD3F
:10154800626BC3F34621013A91427FF494ADA26BDA
:10155800C3F30641013A91427FF48DADE06BC3F3CA
:1015680006630138181A18BF0120F8BDF8BD00BF7E
:1015780000440258484B1A6902F03802102A10B584
:101588000ED0182A0ED0002A40F083801A684348EB
:1015980012F0200F7ED01B68C3F3C103D84010BDE2
:1015A8003F4810BD996A986ADA6AC0F305105C6B07
:1015B80000286FD0C4F3CC0402F001029FED395A21
:1015C800F7EE005A624307EE902A01F00302B8EEE4
:1015D800E76A012A07EE900AF8EEE76A02D00FD30D
:1015E800022A48D01B6BC3F3080307EE903AF8EEC3
:1015F800E77AE6EE057A9FED2C6A77EEA57A37E072
:101608001A68920627D51968244AC1F3C1011B6BD1
:10161800CA40C3F3080307EE902AF8EEE77A87EE8C
:10162800A67A07EE903AF8EEE77AE6EE057A77EED4
:10163800A57A194B67EE877A1B6BC3F346230133F0
:1016480007EE103AF8EEC76A87EEA67AFCEEC77A7C
:1016580017EE900A10BD1B6BC3F3080307EE903A10
:10166800F8EEE77AE6EE057A9FED106A77EEA57A4E
:1016780086EE267ADDE71B6BC3F3080307EE903A84
:10168800F8EEE77AE6EE057A9FED096A77EEA57A35
:10169800EEE7084810BD00BF004402580090D00390
:1016A80000127A00000000390024744A0024744CA7
:1016B8000024F44A00093D002DE9F0410D46044696
:1016C80010B90120BDE8F081894A136803F00F03BF
:1016D8008B42C0F0938023685F0700F19B801E0750
:1016E8000BD584496669C86900F07000864204D940
:1016F800CA6922F070023243CA61D8060BD57D4907
:10170800A669C86900F4E060864204D9CA6922F46F
:10171800E0623243CA6199060BD57649E669086AE0
:1017280000F07000864204D90A6A22F0700232433F
:101738000A629A070BD56F49E668886900F00F00BE
:10174800864204D98A6922F00F0232438A61DF0790
:101758006ED423689E0700F1A28065490A6802F0EA
:101768000F029542C0F0A980580700F1B28019070E
:101778000BD560496569C86900F07000854204D2DC
:10178800CA6922F070022A43CA61DA060BD55949A0
:10179800A569C86900F4E060854204D2CA6922F4E8
:1017A800E0622A43CA619B060BD5524AE069116A76
:1017B80001F07001884204D2136A23F070030343D6
:1017C8001362FFF7D7FE4B494B4A8B69C3F30323D8
:1017D800D35C03F01F03D8408B6903F00F03D35C7D
:1017E800464A03F01F0320FA03F31360444B1860C2
:1017F800444BBDE8F0411868FEF7FABE136823F0C1
:101808000F030B431360136803F00F0399427FF42F
:1018180058AF60E737492669886900F0700086424A
:101828007FF65DAF8A6922F0700232438A6156E71B
:10183800304BA1689A6922F470620A439A61616820
:101848001A6802291ED112F4003F3FF43AAF1A6910
:1018580041F28838274E22F007020A431A61FEF740
:1018680027FF07463369626803F03803B3EBC20FFA
:101878003FF46FAFFEF71CFFC01B4045F2D90320B1
:10188800BDE8F081032902D112F0007FDDE70129CC
:1018980002D112F4807FD8E712F0040FD5E715497A
:1018A800E668886900F00F008642BFF456AF8A697F
:1018B80022F00F0232438A614FE70A6822F00F02D2
:1018C8002A430A600A6802F00F0295427FF4F9AED3
:1018D8004AE708492569886900F070008542BFF425
:1018E80046AF8A6922F070022A438A613FE700BF47
:1018F8000020005200440258DC720008100000204A
:101908000C0000200400002008B5FFF733FE0B4A46
:101918000B4993699269C3F3032302F00F02CB5C6E
:1019280003F01F0320FA03F3885C064A00F01F0047
:1019380023FA00F01060044A136008BD00440258FE
:10194800DC720008100000200C00002008B5FFF72A
:10195800DBFF054B054ADB69C3F30213D35C03F0D5
:101968001F03D84008BD00BF00440258DC720008BD
:1019780008B5FFF7C9FF054B054ADB69C3F3022326
:10198800D35C03F01F03D84008BD00BF00440258D1
:10199800DC720008F8B53A4C06460D46A36A03F017
:1019A8000303032B69D0236823F080632360FEF7C9
:1019B8007FFE074623681A014BD4A36A326823F4D2
:1019C8007C3343EA0233A362B368F268013B013A0D
:1019D8005B0212049BB202F4FE0213437268013ADE
:1019E800C2F3080213433269013A120602F0FE42BA
:1019F8001343A363E36A726923F0C0031343E362EA
:101A0800E36AB26923F020031343E362E36A23F035
:101A18001003E362E36BF26923F47F4323F0F803D6
:101A280043EAC203E363E36A43F01003E362E36A51
:101A3800B5B943F40023E362114C236843F0806393
:101A48002360FEF735FE054623681B010FD50020ED
:101A5800F8BDFEF72DFEC01B0228ABD90320F8BD48
:101A6800012D0CBF43F4801343F40013E3E7FEF7A2
:101A78001FFE401B0228E7D9F0E70120F8BD00BF90
:101A880000440258F8B53A4C06460D46A36A03F0DE
:101A98000303032B69D0236823F080532360FEF7E8
:101AA80007FE074623689A004BD4A36A326823F0DE
:101AB8007C7343EA0253A362B368F268013B013ABC
:101AC8005B0212049BB202F4FE0213437268013AED
:101AD800C2F3080213433269013A120602F0FE42C9
:101AE80013432364E36A726923F440631343E36294
:101AF800E36AB26923F400731343E362E36A23F4ED
:101B08008073E362636CF26923F47F4323F0F80384
:101B180043EAC2036364E36A43F48073E362E36AFB
:101B2800B5B943F48003E362114C236843F0805352
:101B38002360FEF7BDFD054623689B000FD50020F6
:101B4800F8BDFEF7B5FDC01B0228ABD90320F8BDD0
:101B5800012D0CBF43F4000343F08073E3E7FEF765
:101B6800A7FD401B0228E7D9F0E70120F8BD00BF18
:101B7800004402582DE9F8430668044616F000664A
:101B880023D0436EB3F5801F18D002D883B1012645
:101B98001BE0B3F5001F23D0B3F5401FF7D19F4AD0
:101BA8000026616E136D23F440130B4313650CE09C
:101BB8009A4AD36A43F40033D362F0E7022104302F
:101BC800FFF7E8FE06460028E9D02368DD0534D58E
:101BD800636D042B30D8DFE803F0080F290D0D00E2
:101BE80002212430FFF74EFFECE78C4AD36A43F416
:101BF8000033D362354604E00021201DFFF7CAFEFA
:101C08000546E5B9854A616D136D23F007030B435B
:101C180013652368980521D5A36D802B3BD010D878
:101C28006BB3402B31D00126354617E0002104F173
:101C38002400FFF727FFE3E701263546E9E72E46AC
:101C4800E7E7C02B02D0B3F5807FECD14DBB734AD8
:101C5800A16D136D23F4E0730B43136523685905D5
:101C680030D5D4F8A430B3F5800F47D01BD8002B5B
:101C780038D0B3F5001F3BD00126354622E0674A2D
:101C8800D36A43F40033D362E0E70021201DFFF755
:101C980081FE0546DAE7002104F12400FFF7F2FE91
:101CA800F7E72E46DAE7B3F5C00F02D0B3F5000F19
:101CB800E2D14DBB594AD4F8A410936D23F46003C4
:101CC8000B43936523681A052FD5D4F8A830B3F1D0
:101CD800007F41D01AD89BB3B3F1807F36D001265C
:101CE800354622E04D4AD36A43F40033D362E0E735
:101CF8000021201DFFF74EFE0546DAE7002104F11A
:101D08002400FFF7BFFEF7E72E46DBE7B3F1407F7D
:101D180002D0B3F1806FE2D125BB404AD4F8A810B5
:101D2800936D23F0E0630B43936523689B0127D5EC
:101D3800A36C102B33D017D8D3B1012635461FE03A
:101D4800364AD36A43F40033D362E5E70021201D05
:101D5800FFF720FE0546DFE7002104F12400FFF726
:101D680091FEF7E72E46E0E7202B1ED0302BE4D17A
:101D78000DBB2A4AA16CD36C23F030030B43D36408
:101D88002368DF0427D5E36DB3F5005F3ED014D890
:101D980083B3B3F5805F33D0012635461BE01F4A75
:101DA800D36A43F40033D362E2E70221201DFFF730
:101DB800F1FD0546DCE72E46E2E7B3F5405F02D0C9
:101DC800B3F5804FE8D13DBB144AE16D136D23F4A0
:101DD800E0430B4313652368980432D5236EB3F5AB
:101DE800003F44D01CD823B3B3F5803F39D0012637
:101DF800354626E0094AD36A43F40033D362E2E762
:101E08000021201DFFF7C6FD0546DCE7002104F18F
:101E18002400FFF737FEF7E72E46DCE700440258B8
:101E2800B3F5802F05D0B3F5A02F02D0B3F5403F0E
:101E3800DDD115BBA04A216E136D23F4E0230B43BB
:101E48001365236859042DD5D4F8AC30B3F1005F7D
:101E58004BD014D8E3B1B3F1805F40D001263546AA
:101E680020E00121201DFFF795FD0546E1E701214E
:101E780004F12400FFF706FEF7E72E46E1E7B3F189
:101E8800804F05D0B3F1A04F02D0B3F1405FE5D148
:101E9800002D30D1884AD4F8AC10936D23F0E0437C
:101EA8000B43936523681A040FD5E36EB3F1805F83
:101EB80023D0B3F1005F26D05BBB6DBB7E4AE16ED9
:101EC800136D23F040530B4313652368DB0133D5AF
:101ED800636C032B7DD8DFE803F0262176260121E9
:101EE800201DFFF757FD0546D2E7012104F1240024
:101EF800FFF7C8FDF7E72E46D4E76F4AD36A43F4E5
:101F08000033D362D9E70121201DFFF743FD0546C1
:101F1800D3E701263546D8E72E46D6E7664AD36A80
:101F280043F40033D362002D56D1634A616CD36CFD
:101F380023F003030B43D36423685F0256D55F4F36
:101F48003B6843F480733B60FEF7B2FB80463B6816
:101F5800D80543D5002D61D1574BD4F8B0001A6F7E
:101F6800424012F4407F0BD01A6F196F22F440726E
:101F780041F480311967196F21F4803119671A67A4
:101F8800B0F5807F08D1FEF793FB4B4F804641F2B6
:101F980088393B6F990736D5D4F8B030464903F4F1
:101FA8004072B2F5407F35D10869454A20F47C502B
:101FB80002EA131202430A61C3F30B033E4A116F8C
:101FC8000B43136712E00221201DFFF7E3FC0546CF
:101FD800A9E701263546AFE72E46ADE7FEF768FBD1
:101FE800A0EB08006428B2D9032635462368DA072F
:101FF80024D5A36F102B32D012D8BBB1082B28D010
:10200800012635461AE0FEF753FBA0EB08004845C9
:10201800BFD9E9E70A6922F47C52CCE72E46E5E706
:10202800202B03D0282B01D0182BE9D1EDB9224A57
:10203800A16F536D23F038030B43536523689B0747
:1020480022D5636F052B31D8DFE803F016112A1665
:1020580016160121201DFFF79DFC0546E6E7012124
:1020680004F12400FFF70EFDF7E72E46E6E701210D
:10207800201DFFF78FFC0546DDB90F4A616F536DD0
:1020880023F007030B43536523685F0728D5D4F86B
:102098009030052B3AD8DFE803F01A15331A1A1ACC
:1020A800012104F12400FFF7EDFCE4E701263546A1
:1020B800EAE72E46E8E700BF004402580048025805
:1020C800CFFFFF000121201DFFF764FC054605BB7B
:1020D800984AD4F89010936D23F007030B43936547
:1020E8002368980629D5D4F88C30B3F1005F3AD02C
:1020F80011D8CBB1B3F1805F2FD0012635461CE053
:10210800012104F12400FFF7BDFCDFE70126354675
:10211800E6E72E46E4E7B3F1804F05D0B3F1A04FD0
:1021280002D0B3F1405FE8D11DBB824AD4F88C10CD
:10213800536D23F0E0430B435365236859062CD5B0
:10214800D4F89830B3F5006F3FD014D8E3B1B3F5A5
:10215800806F34D0012635461FE00021201DFFF78F
:1021680019FC0546E0E7022104F12400FFF78AFC88
:10217800F7E72E46E1E7B3F5805F05D0B3F5A05F3A
:1021880002D0B3F5406FE5D12DBB6A4AD4F8981058
:10219800936D23F4E0530B43936523681A0630D5F7
:1021A800D4F89C30B3F5804F00F0A48015D8EBB17B
:1021B800B3F5005F00F098800126354621E0002144
:1021C800201DFFF7E7FB0546DEE7022104F12400A6
:1021D800FFF758FCF7E72E46DFE7B3F5004F05D0C9
:1021E800B3F5204F02D0B3F5C04FE5D1002D40F034
:1021F8008780504AD4F89C10936D23F460430B43B6
:10220800936523681B0714D5D4F88030B3F5805F35
:1022180007D1022104F12400FFF734FC002818BF7D
:102228000126444AD4F88010536D23F440530B43DD
:1022380053652368DF0614D5D4F89430B3F5807F4E
:1022480007D1022104F12400FFF71CFC002818BF65
:102258000126384AD4F89410936D23F440730B4345
:1022680093652368180317D5D4F8A010B1F5803FFB
:1022780048D0B1F5003F05D0002949D1201DFFF70E
:1022880089FB0546002D46D12A4AD4F8A010936D43
:1022980023F440330B4393652368590318D5D4F8C6
:1022A8008430B3F5001F38D0B3F5401F07D0B3F51D
:1022B800801F39D11F4AD36A43F40033D362B5BBB8
:1022C8001C4AD4F88410536D23F440130B43536510
:1022D8002368DA033ED5E36C73B3B3F5803F00F0AF
:1022E80082800126354635E00021201DFFF752FB8C
:1022F80005467BE7022104F12400FFF7C3FBF7E75B
:102308002E467EE7022104F12400FFF7BBFBB8E765
:1023180001263546C0E72E46BEE7012104F1240018
:10232800FFF7B0FB0546CAE701263546D0E72E463B
:10233800CEE700BF00440258374AD36A43F400335B
:10234800D362002D55D1344AE16CD36C23F4803329
:102358000B43D36423689B0007D5022104F12400B2
:10236800FFF790FB002818BF012623689F030ED5AE
:10237800E16FB1F5807F46D03DD8002941D1002DCD
:1023880047D12548426D22F440720A434265D8027B
:1023980006D52149206F0A6D22F0004202430A65E2
:1023A800990206D51C49A06E0A6D22F0807202437C
:1023B8000A655A0009D5184A116921F400411161CA
:1023C8001169D4F8B80001431161002B06DA124AEA
:1023D800216DD36C23F040530B43D364301C18BFDA
:1023E8000120BDE8F8830221201DFFF7D3FA054636
:1023F800A7E72E46AEE7B1F5007FC0D0B1F5407F24
:10240800BDD00126C3E70448C26A42F40032C26262
:10241800B5E72E46BBE700BF0044025808B5FFF7F2
:1024280073FA054B054A1B6AC3F30213D35C03F026
:102438001F03D84008BD00BF00440258DC720008E2
:102448004E4930B58C6A8B6ACD6AC3F30533CA6BC3
:10245800002B00F08E80C5F30015C2F3CC029FED6F
:10246800485AF7EE005A6A4307EE902A04F003022E
:10247800B8EEE76A012A07EE903AF8EEE76A02D06A
:102488000FD3022A67D08B6BC3F3080307EE903A89
:10249800F8EEE77AE6EE057A9FED3A6A77EEA57AE6
:1024A80056E00B689B0646D50A688B6BC2F3C101E0
:1024B800354AC3F30803CA4007EE902AF8EEE77AD4
:1024C80087EEA67A07EE903AF8EEE77AE6EE057A16
:1024D80077EEA57A294A67EE877A936BC3F346238A
:1024E80007EE103AB8EEC77A37EE257AC7EE876A54
:1024F800FCEEE66AC0ED006A936BC3F3064307EE91
:10250800103AB8EEC77A37EE257AC7EE876AFCEE3E
:10251800E66AC0ED016A936BC3F3066307EE103AEF
:10252800B8EEC77A77EE255A87EEA57ABCEEC77A59
:1025380080ED027A30BD8B6BC3F3080307EE903A47
:10254800F8EEE77AE6EE057A9FED106A77EEA57A5F
:1025580086EE267ABEE78B6BC3F3080307EE903A44
:10256800F8EEE77AE6EE057A9FED096A77EEA57A46
:10257800EEE703604360836030BD00BF004402584B
:10258800000000390024744A0090D0030024744CE1
:102598000024F44A4E4930B58C6A8B6ACD6AC3F37D
:1025A80005534A6C002B00F08E80C5F30025C2F35A
:1025B800CC029FED485AF7EE005A6A4307EE902A7C
:1025C80004F00302B8EEE76A012A07EE903AF8EE43
:1025D800E76A02D00FD3022A67D00B6CC3F3080353
:1025E80007EE903AF8EEE77AE6EE057A9FED3A6A5A
:1025F80077EEA57A56E00B689B0646D50A680B6C01
:10260800C2F3C101354AC3F30803CA4007EE902A52
:10261800F8EEE77A87EEA67A07EE903AF8EEE77AD0
:10262800E6EE057A77EEA57A294A67EE877A136C83
:10263800C3F3462307EE103AB8EEC77A37EE257A89
:10264800C7EE876AFCEEE66AC0ED006A136CC3F356
:10265800064307EE103AB8EEC77A37EE257AC7EE8A
:10266800876AFCEEE66AC0ED016A136CC3F3066381
:1026780007EE103AB8EEC77A77EE255A87EEA57AB4
:10268800BCEEC77A80ED027A30BD0B6CC3F3080349
:1026980007EE903AF8EEE77AE6EE057A9FED106AD3
:1026A80077EEA57A86EE267ABEE70B6CC3F30803AD
:1026B80007EE903AF8EEE77AE6EE057A9FED096ABA
:1026C80077EEA57AEEE703604360836030BD00BF14
:1026D80000440258000000390024744A0090D003D6
:1026E8000024744C0024F44A4E4930B58C6A8B6A35
:1026F800CA6AC3F305134D6B002B00F08E80C5F337
:10270800CC0502F001029FED485AF7EE005A6A43E1
:1027180007EE902A04F00302B8EEE76A012A07EEF2
:10272800903AF8EEE76A02D00FD3022A67D00B6B13
:10273800C3F3080307EE903AF8EEE77AE6EE057A77
:102748009FED3A6A77EEA57A56E00B689B0646D568
:102758000A680B6BC2F3C101354AC3F30803CA40C8
:1027680007EE902AF8EEE77A87EEA67A07EE903A17
:10277800F8EEE77AE6EE057A77EEA57A294A67EE6B
:10278800877A136BC3F3462307EE103AB8EEC77A7D
:1027980037EE257AC7EE876AFCEEE66AC0ED006A76
:1027A800136BC3F3064307EE103AB8EEC77A37EE59
:1027B800257AC7EE876AFCEEE66AC0ED016A136BFC
:1027C800C3F3066307EE103AB8EEC77A77EE255AD8
:1027D80087EEA57ABCEEC77A80ED027A30BD0B6B26
:1027E800C3F3080307EE903AF8EEE77AE6EE057AC7
:1027F8009FED106A77EEA57A86EE267ABEE70B6B18
:10280800C3F3080307EE903AF8EEE77AE6EE057AA6
:102818009FED096A77EEA57AEEE70360436083606F
:1028280030BD00BF00440258000000390024744A3B
:102838000090D0030024744C0024F44AB0F5807F43
:102848001FB519D16A4B1A6D02F00702042A21D864
:10285800DFE802F09A806DC90300DB6C13F0405387
:1028680000F0B680B3F1805F00F0BF80B3F1005F85
:10287800604818BF002071E0B0F5007F14D15C4AB1
:10288800136D03F4E073802B51D005D8002B7BD057
:10289800402B5FD0002061E0C02B00F0A480B3F58E
:1028A800807FF7D1D36CD9E7B0F5806F13D1504A48
:1028B800936D03F46003B3F5800F38D004D8002B70
:1028C80062D0B3F5001FE4E7B3F5C00F00F08B80CA
:1028D800B3F5000FE5E7B0F5006F12D1444A936DE8
:1028E80003F0E063B3F1007F21D004D8002B4BD074
:1028F800B3F1807FCDE7B3F1407F74D0B3F1806F3F
:10290800CFE7B0F5805F16D1394A136D03F4E04381
:10291800B3F5005F0BD004D8002B35D0B3F5805F3A
:10292800B7E7B3F5405F5ED0B3F5804FB9E701A8CC
:10293800FFF730FE11E0B0F5002F17D12C4A936D48
:1029480003F44033B3F5803F0BD0B3F5003FA9D073
:10295800002B9FD101A8FFF773FD019805B05DF822
:1029680004FB01A8FFF716FE0398F7E7B0F5803FD0
:102978000FD11F4BDB6C13F4803305D0002B89D0AB
:1029880001A8FFF75DFDEFE701A8FFF7ADFE02988C
:10299800E4E7B0F5804F7FF47DAF154B9B6D03F0F6
:1029A800E043B3F1005F18D008D89BB1B3F1805F62
:1029B8007FF470AF01A8FFF743FDE8E7B3F1804F5C
:1029C80013D0B3F1A04F0CD0B3F1405F7FF462AFE6
:1029D8000948C3E7FFF722FDC0E701A8FFF7DAFDC2
:1029E800D5E70448BAE70548B8E70548B6E700BFA1
:1029F8000044025800127A000090D0030080BB0007
:102A080000093D002DE9F04F064687B08846FDF7DE
:102A18004FFE08218246306802F08AFA044640BB1D
:102A2800B16C3068090402F0AFFB044608BB3022E1
:102A38004FF0FF300821022304948DE80F00012392
:102A480069463068059302F060FA306802F0CBFB03
:102A5800044670B905460746834640F22A5930684D
:102A6800436B13EA090F436B07D019071CD50824D9
:102A78008463204607B0BDE8F08F1B030BD4BBF17D
:102A8800000F08D102F018FA074630684FF0010B22
:102A980002F012FA0546FDF70BFEA0EB0A00013022
:102AA800DDD14FF00044E4E7436B9A0701D50224D7
:102AB800DEE7436B9B0601D52024D9E7044B2DBAEA
:102AC8003FBA8363C8F80050C8F80470D1E700BF64
:102AD8003A0F00182DE9F04B0F4686B0044616460B
:102AE8009846FDF7E5FD81462FB9A36B43F00063D7
:102AF800A363012010E094F83400C0B2012840F02C
:102B0800BD8006EB0803626D00219342A16306D9DC
:102B1800A36B43F00073A36306B0BDE8F08B0323F7
:102B28002068022584F83430E36BC1626946012BC2
:102B38004FF0FF33039500934FEA482318BF7602FE
:102B480001939023029300230493059302F0DDF987
:102B58002068B8F1010FC36843F04003C36010D97F
:102B68002563314602F016FA88B12368454A9A630C
:102B7800A36B1843A0630120002384F83400236367
:102B8800CAE701233146236302F0EBF9ECE7019D24
:102B98002068436B13F4957F1CD0C36823F040036F
:102BA800C360436BDB0509D5B8F1010F06D9E36BA8
:102BB800032B03D002F03AFA0028D6D12368596BC8
:102BC80011F0080136D02F4A9A63A36B43F008032B
:102BD800A363D0E7436B1A0417D51F2D15D93E1DE3
:102BE80007F1240B2068043602F066F906F8080C91
:102BF800030A06F8073C030C000E06F8063C06F824
:102C0800050CB345EED12037203DFDF751FD0E9B55
:102C1800A0EB09009842BBD323680320194A9A63A2
:102C2800A36B43F00043A363012384F834300023EB
:102C3800236371E75A6B12F002020AD0114A01208D
:102C48009A63A36B43F00203A36384F834002163FF
:102C580062E7586B10F020000AD00A4901209963F6
:102C6800A36B43F02003A36384F83400226353E783
:102C7800054A9A63012384F834304DE7A36B43F087
:102C8800005335E7FF0FE01F3A0F00182DE9F04712
:102C98000E4688B0044691461F46FDF709FD80465A
:102CA8002EB9A36B43F00063A363012010E094F8EE
:102CB8003400C0B2012840F0B08009EB0703626D10
:102CC80000219342A16306D9A36B43F00073A36369
:102CD80008B0BDE8F0870323206884F83430E36B3C
:102CE800C16202A9012B4FF0FF3302934FEA472339
:102CF80018BF4FEA492903939023049300230593AF
:102D08000693079302F001F92068012FC36843F086
:102D18004003C36011D920234946236302F06CF9AC
:102D280088B123683F4A9A63A36B1843A0630120C4
:102D3800002384F834002363CAE710234946236339
:102D480002F041F9ECE7039D2068436B13F48D7F93
:102D58001BD0C36823F04003C360436BDB0508D571
:102D6800012F06D9E36B032B03D002F05FF900288B
:102D7800D7D12368596B11F008012AD0294A9A63E0
:102D8800A36B43F00803A363D1E7436B5A040DD543
:102D98001F2D0BD906F1200A56F8043B01A920681B
:102DA800019302F08CF8B245F6D1203DFDF780FC86
:102DB800109BA0EB08009842C6D323680320194A49
:102DC8009A63A36BA363012384F83430002323633D
:102DD8007EE75A6B12F002020AD0124A01209A6367
:102DE800A36B43F00203A36384F8340021636FE705
:102DF800586B10F010000AD00A4901209963A36BA0
:102E080043F01003A36384F83400226360E7064AA2
:102E18009A63012384F834305AE7A36B43F00053D4
:102E280042E700BFFF0FE01F3A0F001870477047D6
:102E3800036E9A0F0A70C3F383624A70C3F3016288
:102E48008A70C3F30742CA70C3F30722DBB20A7160
:102E58004B71436E1A0DCA80C3F303420A72C3F35F
:102E6800C0324A72C3F380328A72C3F34032CA72E4
:102E7800C3F300320A7300224A73C26B10B5002AEA
:102E88006BD140F6FC74826E04EA830343EA9273C2
:102E98000B61C2F3C2630B75C2F302634B75C2F3D5
:102EA80042538B75C2F38243C2F3C232CB750A76A2
:102EB8000B690A7E013302F0070202329340C364B1
:102EC8000A7A02F00F040122A2400265520A534313
:102ED80043654FF400738365836EC3F380324A768B
:102EE800C3F3C61203F07F038A76CB76C36E002045
:102EF800DA0F0A77C3F341724A77C3F382628A779B
:102F0800C3F38352CA77C3F3405281F82020C3F336
:102F1800004281F8210081F82220C3F3C03281F8F1
:102F28002320C3F3803281F82420C3F3403281F890
:102F38002520C3F3003281F82620C3F3812281F8CB
:102F48002720C3F30122C3F3460381F8282081F820
:102F58002930012381F82A3010BD012A0FD11B0422
:102F6800B0F86A2003F47C1313430B610B69013337
:102F78009B02C36443654FF400730365ABE70368C2
:102F8800054A9A63836B43F080538363012380F877
:102F98003430184610BD00BFFF0FE01F2DE9F04781
:102FA800002398B004460793089309930A93FA23D9
:102FB8000B938369022B04D10268136843F0100352
:102FC80013600AAB93E8070007AB8DE80700206899
:102FD8000ECB01F057FF206801F076FF4FF48030E8
:102FE800FFF72CFC4FF4FA73B0FBF3F0F8B18E4BFB
:102FF800B3FBF0F00130FDF761FB00230693FDF70A
:1030080057FB0746206802F055F8054640B9206886
:1030180002F07AF868B12564206802F04BF850B1E4
:10302800012584F83450A36B1843A063CAE002203A
:10303800E1E701232364236C012B4CD04FF6FE7883
:103048000026DFF8ECA1C146069B43454CD9069BF8
:103058004B4561D86B0033D50123E363A369022B89
:103068002ED1EE012CD54FF400732068E365036878
:1030780043F00803036002F09CF90028D0D12368CC
:103088005A6B55014BD54FF080629A635B6BD8023F
:1030980027D50120FFF7CBFE2268136843F004030D
:1030A800136023685A6B910141D54FF000729A63FF
:1030B8005A6BD20230D413221A604FF0FF329A634F
:1030C80001232068ADF8163001F004FF002834D140
:1030D8004FF0806081E00021206802F055F8002858
:1030E800ACD04FF080509BE7002EB0D1314620681D
:1030F80002F04AF8002893D15146206802F05DF8A2
:103108000028EED13146206801F0FCFE069B0546FA
:10311800C60F0133069397E74FF0807080E7FDF7FD
:10312800C7FAC01B0130AAD14FF0004078E7FDF77D
:10313800BFFAC01B0130B4D1F6E7E36B032B18D0FC
:10314800206802F069F8002847D10146206801F09C
:10315800D9FE04212067206801F0D4FE08216067A9
:10316800206801F0CFFE0C21A067206801F0CAFE9C
:10317800E067E36B032B29D1E36B032B33D10421E5
:10318800206801F0BFFE0DA9000D60642046FFF71E
:103198004FFE0546002844D1A26C0346206812045D
:1031A80001F06EFFC8B94FF40071206801F0C0FE4D
:1031B80040B1236801251D4A9A63A36B1843A06395
:1031C80084F83450284618B0BDE8F0870DF1160190
:1031D800206802F04DF80028CED0012584F834503C
:1031E800A16B084321E7BDF816102068A164090403
:1031F80002F028F80028F0D10146206801F082FE8C
:1032080004212066206801F07DFE082160662068A0
:1032180001F078FE0C21A066206801F073FEE066DC
:10322800ADE74FF08050D8E710210100FF0FE01FF5
:10323800000010C12DE9F041044696B00E46FDF796
:1032480037FA00218046206801F05CFE830100F116
:10325800A3804021206801F06BFE58B1A36BA363E3
:1032680023680125514A9A63A36B1843A06384F825
:10327800345060E0A16C2068090401F085FF002843
:10328800ECD14FF0FF334FF0020E40256027049039
:10329800694620688DE8A8400123059301F035FEB2
:1032A800206802F052F80028D8D106AF23685A6B7C
:1032B80012F4957F50D05A6B110770D45A6B92074D
:1032C8006FD45B6B9B066ED42068456B15F48055F4
:1032D80057D1069A364B8363C2F381133370C2F316
:1032E80040137370130A23F0FF0343EA12639BB27F
:1032F8007380079B1BBA7360089BDAB23272C3F300
:1033080007227272C3F303521B0CB272099A23F09C
:10331800FF03D1B20B43B381C2F38523B373C2F366
:103328000123F373C2F3031302F00F0233749DF801
:103338002B307274B3744FF40071206801F0F8FDFB
:1033480030B123680125194A9A63A06384F8345080
:10335800284616B0BDE8F0815B6B180408D507F164
:103368002005206801F0A8FD47F8040BAF42F8D10A
:10337800FDF79EF9A0EB0800013097D14FF000400F
:103388006EE701F099FD47F8040BFDF791F9A0EB02
:103398000800013098D1F1E74FF4006060E7082099
:1033A8005EE702205CE720205AE700BFFF0FE01F1E
:1033B8003A0F0018C36B0B60036C4B60436C8B6057
:1033C800836CCB60C36C0B61036D4B61436D8B6188
:1033D800836D0020CB617047032330B580F834300B
:1033E8008BB0C36B04460D46032B02D0B1F5004FDA
:1033F80003D1A36B43F0805365E0B1F5804F3CD116
:10340800002100680491059101F07CFD80012ED413
:1034180004A92046FFF7F6FA60B9059B590329D598
:10342800A16C2068090401F0AFFE18B902212068D8
:1034380001F0BDFFA36B1843A063A36B002B44D01E
:1034480023680125314A9A634FF40071206801F01E
:103458006FFD30B1236801252C4A9A63A36B18438A
:10346800A0630123284684F834300BB030BD4FF4F4
:103478000060DFE74FF08060DCE709BB006804917B
:10348800059101F03FFD820114D404A92046FFF7FD
:10349800B9FA60B9059BDB030FD5A16C2068090454
:1034A80001F072FE18B90146206801F080FFA16B97
:1034B8000843C1E74FF40060F9E74FF08060F6E792
:1034C800836B43F00063A363B7E7636806950493CF
:1034D800A3680593236907936369032B0CD90893A1
:1034E8000AAB002513E9070004AB8DE80700206844
:1034F8000ECB01F0C7FCA7E7E26DB2F5007FEED076
:10350800B2F5807F0CBF02230423E8E7FF0FE01F1A
:10351800816C10B509040446006801F0FDFE0146FF
:1035280028B9206801F0EEFCC0F3432010BDA36B5E
:1035380000201943A163F7E770B5044686B018B9AF
:103548000125284606B070BD90F8343003F0FF021C
:103558003BB9836902770BB902238361204603F0E4
:1035680081FC0323204684F83430FFF717FD002838
:10357800E6D101A92046FFF75DFE0028E0D1E16B06
:103588009DF8142001299DF81530D2B2DBB21DD167
:1035980002B9C3B14FF40073E365E1682046FFF751
:1035A8001BFF05460028CBD1FDF782F806462046CA
:1035B800FFF7AEFF04280BD10023A3632363012385
:1035C80084F83430BDE74FF48073E5E7E065E4E75D
:1035D800FDF76EF8801B0130E9D14FF00043032559
:1035E800A363012384F83430ABE770477047704712
:1035F80070470000F7B5056B04460068436B190473
:1036080020D52A071ED5E36A1F2B19D9A66A351DAE
:1036180006F124072068043501F04EFC05F8080C73
:10362800030A05F8073C030C000E05F8063C05F8EC
:10363800050CAF42EED1E36A2036203BA662E36276
:1036480003B0F0BD436BDB0553D54FF48073836340
:10365800C36B23F4414323F03A03C363C36B23F0E2
:103668008053C363C36823F04003C36015F00803A5
:103678001FD015F0220F08D001F0D8FC28B1A36B99
:103688001843A0632046FFF7D1FB2368AF076A4AB7
:103698009A634FF0010384F834304FF0000323633A
:1036A80003D0204603F080F8CAE7204603F077F8F5
:1036B800C6E72E06C4D515F0220F8362C3620365E0
:1036C80008D001F0B3FC28B1A36B1843A0632046CF
:1036D800FFF7ACFB012315F0300F84F834304FF0BE
:1036E8000003236302D0204603F059F8A807A7D0A7
:1036F800D7E7436B590427D52A0725D5636A1F2BBB
:103708009ED9266A351D06F1240715F8043C0435B0
:1037180001A92068019315F8072C43EA02230193B5
:1037280015F8062C43EA0243019315F8052C43EAE1
:103738000263019301F0C3FBAF42E6D1636A20360E
:10374800203B266263627BE7436B13F03A0F436BBF
:1037580056D09B0703D5A36B43F00203A363436BC7
:103768001F0703D5A36B43F00803A363436B9E06AF
:1037780003D5A36B43F02003A363436BD90603D59A
:10378800A36B43F01003A3632B4B8363C36B23F436
:103798009D73C363C36823F04003C360C36A43F4E3
:1037A8000053C362C36843F08003C36001F03EFC6A
:1037B800A36B15F0080140EA03002368A063DA68E8
:1037C80022F08002DA604FF400629A6308D0012385
:1037D80084F83430002323632046FFF727FB2FE7C4
:1037E8002A067FF52DAFA26B002A3FF429AFDA6BCA
:1037F80022F08052DA631965012384F83430EBE74C
:10380800DB007FF51DAF4FF0805305F02005836383
:10381800036D204613F0040F06D115B1FFF7E8FE3B
:103828000EE7FFF7E3FE0BE715B1FFF7E0FE07E74A
:10383800FFF7DBFE04E700BF3A0F001800000000A6
:103848000368C26981682DE9F043054600691C6870
:1038580087B0014368690143686E11430143BB485F
:1038680020400143E8681960596821F44051014338
:10387800A8695960B6498B421CBF296A08439968F0
:1038880021F06E4121F430610143686A9960D96A78
:1038980021F00F010143D962AE498B421DD1AE4BD5
:1038A8005B6D03F03803282B00F25E87AB49CC5CD4
:1038B800B2F5004F40F05F87082C00F0DE8400F27C
:1038C800BA83012C00F03284C0F0F483042C00F099
:1038D800AF840122002300F050BCA1498B4208D1DB
:1038E8009D4B5B6D03F00703052B00F23A879D495A
:1038F800DDE79D498B4208D1974B5B6D03F00703C9
:10390800052B00F22E879949D1E799498B4208D1B6
:10391800914B5B6D03F00703052B00F22287954955
:10392800C5E795498B4208D18B4B5B6D03F00703C4
:10393800052B00F216879149B9E791498B4208D1C6
:10394800854B5B6D03F03803282B00F20A878D49FD
:10395800ADE78D498B4208D17F4B5B6D03F00703C0
:10396800052B00F2FE868949A1E789498B4208D1D7
:10397800794B5B6D03F00703052B00F2F28685494E
:1039880095E773498B4240F0EC86734B9B6D03F0CF
:103998000703052B01D90122A6E07F4AD45C082C35
:1039A80000F0C8802FD8022C7DD0042CF3D16846B3
:1039B800FEF746FD019A6B6A002B00F0C080012BD0
:1039C80000F0BF80022B00F0BE80032B00F0E880DF
:1039D800042B00F0AB80052B00F0E480062B00F0F0
:1039E800E380072B00F0E280082B00F0E180092B30
:1039F80000F0E0800A2B00F0DF800B2B14BF0123BE
:103A08004FF4807393E0202C00F00A81402C00F0E2
:103A18002181102CBFD1504B1A68920640F1E480E6
:103A28001A685E4BC2F3C102D340002800F0C6807A
:103A3800012800F0C580022800F0C480032800F0A7
:103A4800C380042800F0C280052800F0C180062841
:103A580000F0C080072800F0BF80082800F0BE8072
:103A6800092800F0BD800A2800F0BC800B2814BF8C
:103A780001204FF48070B3FBF0F26E6806EB46034A
:103A8800934288D8B2EB063F85D8082C00F0D28143
:103A980000F24381022C00F08D81042C00F0C581D6
:103AA80001220020B8E1FEF7B9FC6B6A43B3012B91
:103AB80028D0022B28D0032B28D0042B28D0052B64
:103AC80028D0062B28D0072B28D0082B28D0092B44
:103AD80028D00A2B28D00B2B14BF01234FF4807356
:103AE800B0FBF3F2002AC8D101231046A5F86A30CA
:103AF800A5F868300023EB662B6707B0BDE8F083B4
:103B08000123EDE72346EBE70423E9E70623E7E78C
:103B18000823E5E70A23E3E70C23E1E71023DFE7BF
:103B28002023DDE74023DBE78023D9E70823B2FB26
:103B3800F3F2D7E703A8FEF72DFD049A3BE701232C
:103B4800F5E70223F3E70423F1E700BFF369FFCFAA
:103B5800000C005800100140004402587871000819
:103B680000440040A171000800480040A17100080D
:103B7800004C0040A171000800500040A1710008ED
:103B8800001401407871000800780040A171000815
:103B9800007C0040A1710008A77100080090D003C4
:103BA8000623C4E70A23C2E70C23C0E71023BEE7B5
:103BB8002023BCE74023BAE78023B8E701205AE76F
:103BC800022058E7042056E7062054E7082052E769
:103BD8000A2050E70C204EE710204CE720204AE747
:103BE800402048E7802046E700284FD001284FD0E2
:103BF80002284FD003284FD004284FD005284FD093
:103C080006284FD007284FD008284FD009284FD072
:103C18000A2851D0AD4AAE4B0B2818BF1A462CE7DC
:103C2800002841D0012841D0022841D0032841D0A2
:103C3800042841D0052841D0062841D0072841D082
:103C4800082841D0092841D00A2842D043F6095211
:103C5800A04BE1E700283FD0012840D0022841D0FE
:103C6800032842D0042843D0052844D0062845D04C
:103C7800072846D0082847D0092848D00A2849D01C
:103C88000B280CBF80224FF40042F6E6904AF4E677
:103C9800914AF2E6914AF0E6914AEEE6914AECE65C
:103CA800914AEAE6914AE8E68A4AE6E6904AE4E674
:103CB800904AE2E6904AE0E6904ADEE6904ADCE680
:103CC800904ADAE6814AD8E68F4AD6E64FF224428D
:103CD800D3E647F61222D0E64FF40042CDE64FF481
:103CE8008042CAE64FF40052C7E641F25552C4E694
:103CF8004FF48052C1E640F6CC42BEE640F6AA2216
:103D0800BBE64FF40062B8E64FF48062B5E64FF4C4
:103D18000072B2E64FF48072AFE6202C00F01C81EE
:103D2800402C00F04F81102C7FF4BAAE774A74080B
:103D3800136813F0200F6B6A00F0AD8012686448B6
:103D4800C2F3C102D040002B00F0A380012B00F089
:103D58008C80022B00F08B80032B00F08A80042BD0
:103D680000F08980052B00F08880062B00F0878002
:103D7800072B00F08680082B00F08580092B00F0C7
:103D880084800A2B00F083800B2B40F082804FF454
:103D9800807200230021FCF7A3FA32464FEA01297A
:103DA80000234FEA002849EA106918EB040049F19A
:103DB80000012EE0FEF732FB6B6A002B53D0012B7B
:103DC8003DD0022B3DD0032B3DD0042B3DD0052BFD
:103DD8003DD0062B3DD0072B3DD0082B3DD0092BDD
:103DE8003DD00A2B3DD00B2B3DD14FF480720023E0
:103DF8000021FCF775FA6C680F02002306022246C0
:103E080047EA1067600816EB000847F100094046CA
:103E18004946FCF765FA0022A0F540713C4B9942EF
:103E28003FF6B9AD2B68D8605EE66846FEF708FB3A
:103E38000198C1E703A8FEF7ADFB0498BCE702228E
:103E4800D5E70422D3E70622D1E70822CFE70A22E2
:103E5800CDE70C22CBE71022C9E72022C7E7402292
:103E6800C5E78022C3E70122C1E7022291E70422C5
:103E78008FE706228DE708228BE70A2289E70C22C2
:103E880087E7102285E7202283E7402281E7802206
:103E98007FE701227DE7002B5BD0012B3AD0022B74
:103EA80041D0032B41D0042B43D0052B43D0062B04
:103EB80043D0072B45D0082B45D0092B45D00A2BDA
:103EC80045D00B2B45D10248002125E090D00300B6
:103ED8000090D00300093D000048E8010024F400E8
:103EE800AAC2A20000127A0000A861005561510020
:103EF80080841E0040420F002A2C0A0020A10700DF
:103F0800801A06001516050048E80100004402580A
:103F1800FFFC0F00AE480121001932464FF00003A4
:103F280041F1000175E7AB48CEE7A1A1D1E9000155
:103F3800F2E7A948C8E7A948C6E79FA1D1E9000167
:103F4800EAE7A748C0E7A748BEE7A748BCE7A748ED
:103F5800BAE7A7480321DFE76B6A8BB3012B16D0BA
:103F6800022B16D0032B16D0042B19D0052B19D0F1
:103F7800062B19D0072B1BD0082B1BD0092B1BD0C5
:103F88000A2B1BD00B2B1BD19A48002106E0954821
:103F9800FBE79548F9E78AA1D1E900017408BBE776
:103FA8009248F2E79448F0E787A1D1E90001F5E7E4
:103FB8009248EAE79248E8E79248E6E79248E4E759
:103FC8008748E2E76B6A9BB3012B16D0022B17D008
:103FD800032B18D0042B18D0052B19D0062B19D079
:103FE800072B19D0082B1AD0092B1BD00A2B1CD051
:103FF8000B2B1DD14FF40040C7E74FF48000C4E7F6
:104008004FF40010C1E78148BFE74FF48010BCE7C8
:104018007F48BAE77F48B8E74FF40020B5E74FF488
:104028008020B2E74FF40030AFE74FF48030ACE7C0
:104038004FF40000A9E7202C00F08E81402C00F0FE
:10404800C481102C7FF445AC734B69681A6812F070
:10405800200F00F04B811B68684AC3F3C10322FAA2
:1040680003F3002800F02C81012800F02B8102289E
:1040780000F02A81032800F02981042800F0288113
:10408800052800F02781062800F02681072800F07F
:104098002581082800F02481092800F023810A28B6
:1040A80000F022810B2814BF01224FF48072B3FB69
:1040B800F2F21FE0FDF74AFC696A09B3012921D031
:1040C800022921D0032921D0042921D0052921D072
:1040D800062921D0072921D0082921D0092921D052
:1040E8000A2921D00B2914BF01224FF48072696874
:1040F800B0FBF2F24B0803EB4203B3FBF1F33AE0F7
:104108000122F4E70222F2E70422F0E70622EEE7B2
:104118000822ECE70A22EAE70C22E8E71022E6E7A1
:104128002022E4E74022E2E78022E0E7FDF720FCD6
:104138006A6AC2B1012A2FD0022A2FD0032A2FD0AF
:10414800042A2FD0052A2FD0062A67D0072A67D03D
:10415800082A67D0092A67D00A2A67D00B2A14BF11
:1041680001244FF480746A68B0FBF4F4530803EB3D
:104178004403B3FBF2F39BB20022A3F110004FF605
:10418800EF7188423FF607AC23F00F01C3F34203F7
:1041980028680B43C360A7E40224E4E70424E2E7A9
:1041A8000624E0E70824DEE70A24DCE7AFF3008012
:1041B80000AAC2A2000000000055615100000000E2
:1041C800002A2C0A00000000001516050000000057
:1041D800000048E8000024F40000127A0000A861FA
:1041E8000000093D0080841E0040420F0020A10706
:1041F800000090D000093D0000801A060090D0030E
:104208000048E8010024F40000127A000055150067
:1042180000CC0C0000AA0A00004402580C24A2E7B3
:104228001024A0E720249EE740249CE780249AE7F6
:104238006846FEF705F96A6A019B6AB3012A2DD020
:10424800022A16D0032A2DD0042A11D0052A2BD0F1
:10425800062A2BD0072A2BD0082A2BD0092A2BD0A4
:104268000A2A2BD00B2A14BF01244FF4807400E0D3
:1042780008246A68B3FBF4F478E703A8FEF78AF920
:104288006A6A049B42B1012A08D0022A08D0032A8C
:1042980008D0042ADAD1ECE70124EAE70224E8E7A7
:1042A8000424E6E70624E4E70A24E2E70C24E0E72E
:1042B8001024DEE72024DCE74024DAE78024D8E76E
:1042C8000122F4E60222F2E60422F0E60622EEE6F5
:1042D8000822ECE60A22EAE60C22E8E61022E6E6E4
:1042E8002022E4E64022E2E68022E0E6F0B101285E
:1042F8001ED002281ED003281ED004281ED0052850
:104308001ED006281ED007281ED008281ED009282F
:104318001ED00A281ED0A34BA34A0B2814BF104650
:10432800184600EB5100B0FBF1F324E79E48F8E78C
:104338009E48F6E79E48F4E79E48F2E79E48F0E775
:104348009E48EEE79E48ECE79E48EAE79E48E8E785
:104358009E48E6E79E48E4E700B3012820D00228FB
:1043680020D0032820D0042820D0052820D00628D3
:1043780020D0072820D0082820D0092820D00A28B3
:1043880020D047F612228F4B0B2814BF1846104630
:104398006B6800EB5300B0FBF3F3ECE68948F7E7F2
:1043A8008948F5E78948F3E78A48F1E78848EFE75D
:1043B8008948EDE78948EBE77A48E9E78848E7E77D
:1043C8008848E5E74FF22440E2E7E8B1012817D032
:1043D80002281CD003281DD004281ED005281FD071
:1043E800062820D0072821D0082822D0092823D041
:1043F8000A2824D00B2814BF4FF480324FF480725F
:10440800696802EB510378E64FF48032F8E74FF41D
:104418008042F5E742F6AA22F2E74FF40052EFE7AE
:1044280041F69812ECE741F25452E9E74FF4805212
:10443800E6E74FF40062E3E74FF48062E0E74FF409
:104448000072DDE7FDF782FA6B6A63B3012B2CD0AB
:10445800022B2CD0032B2CD0042B2CD0052B2CD0AA
:10446800062B2CD0072B2CD0082B2CD0092B2CD08A
:104478000A2B2CD00B2B14BF01234FF480736A68CE
:10448800B0FBF3F303EB5203B3FBF2F39BB200224E
:10449800A3F110004FF6EF7188423FF67CAA296815
:1044A800CB60FFF721BB0123E9E70223E7E70423F9
:1044B800E5E70623E3E70823E1E70A23DFE70C2320
:1044C800DDE71023DBE72023D9E74023D7E7802364
:1044D800D5E7FDF74DFA6B6AC3B1012B1AD0022B51
:1044E8001AD0032B1AD0042B1AD0052B1AD0062B5E
:1044F8001AD0072B1AD0082B1AD0092B1AD00A2B3E
:104508001AD00B2B14BF01244FF480746A68B0FBD7
:10451800F4F3B7E70224F9E70424F7E70624F5E7FC
:104528000824F3E70A24F1E70C24EFE71024EDE769
:104538002024EBE74024E9E78024E7E708246868BB
:10454800B3FBF4F303EB5003B3FBF0F39EE703A8CC
:10455800FEF720F86A6A049B4AB1012A09D0022AA8
:1045680009D0032A09D0042A40F02581E7E701246D
:10457800E5E70224E3E70424E1E70624DFE70A2469
:10458800DDE70C24DBE71024D9E72024D7E7402413
:10459800D5E78024D3E7012260E102225EE104220C
:1045A8005CE100BF20A107000020A1070090D00314
:1045B8000048E801548545010024F4000050C30078
:1045C800AAC2A20000127A0000093D0080841E00E1
:1045D80040420F005458140000350C002A2C0A00E1
:1045E80090D0030048E80100062237E1082235E1AF
:1045F8000A2233E10C2231E110222FE120222DE1A1
:1046080040222BE1802229E1F0B101281ED00228A6
:104618001ED003281ED004281ED005281ED0062828
:104628001ED007281ED008281ED009281ED00A2808
:104638001ED08E4B8E4A0B2814BF1046184600EB2E
:104648005100B0FBF1F321E78948F8E78948F6E71C
:104658008948F4E78948F2E78948F0E78948EEE7AE
:104668008948ECE78948EAE78948E8E78948E6E7BE
:104678008948E4E700B3012820D0022820D0032885
:1046880020D0042820D0052820D0062820D00728AC
:1046980020D0082820D0092820D00A2821D043F685
:1046A80009527A4B0B2814BF184610466B6800EB6A
:1046B8005300B0FBF3F3E9E67448F7E77448F5E70D
:1046C8007448F3E77548F1E77348EFE77448EDE796
:1046D8007448EBE76548E9E77348E7E74FF2244099
:1046E800E4E747F61220E1E7D0B101281BD0022801
:1046F8001CD003281DD004281ED005281FD006284A
:1047080020D0072821D0082822D0092823D00A2819
:1047180024D00B2814BF4FF400438023686811E7A6
:104728004FF40043FAE74FF48043F7E74FF40053A0
:10473800F4E741F25553F1E74FF48053EEE740F6C2
:10474800CC43EBE740F6AA23E8E74FF40063E5E73C
:104758004FF48063E2E74FF40073DFE74FF48073B0
:10476800DCE78024FFF7A4B8B2F5004F3FF4B1A806
:10477800012200238CE6082C3FF4E9AE33D8012C43
:104788003FF4A7AEFFF45EAE042C7FF404A968469C
:10479800FDF756FE6A6A019B002A3FF4E8AE012A3B
:1047A8003FF4E7AE022A3FF4CAAE032A3FF4E5AE6F
:1047B800042A3FF4C3AE052A3FF4E1AE062A3FF4CB
:1047C800E0AE072A3FF4DFAE082A3FF4DEAE092A3E
:1047D8003FF4DDAE0A2A3FF4DCAE0B2A14BF0124F5
:1047E8004FF48074ABE6202C3FF444AF402C3FF4E8
:1047F8007BAF102C7FF4CFA82C4B69681A6812F095
:10480800200F3FF401AF1A68194BC2F3C102D3401D
:1048180000283FF4C0AE01283FF4BFAE02283FF4A1
:10482800BEAE03283FF4E0AE04283FF4DFAE05280F
:104838003FF4DEAE06283FF4DDAE07283FF4DCAED9
:1048480008283FF4DBAE09283FF4DAAE0A283FF423
:10485800D9AE0B2814BF01224FF48072B3FBF2F3D8
:1048680003EB5103B3FBF1F310E600BF90D0030054
:104878000090D0030048E8010024F400AAC2A20076
:1048880000127A0000A861005561510000093D003E
:1048980080841E0040420F0020A107002A2C0A0035
:1048A800801A06001516050048E801000044025861
:1048B800836ADA0710B506D50168C46A4A6822F423
:1048C800003222434A609C0706D50168046B4A6897
:1048D80022F4803222434A60590706D50168446BA6
:1048E8004A6822F4802222434A601A0706D50168E2
:1048F800846B4A6822F4004222434A60DC0606D5EB
:104908000168C46B8A6822F4805222438A6099063F
:1049180006D50168046C8A6822F4005222438A6032
:104928005A0610D50168446C4A68B4F5801F22F411
:10493800801242EA04024A6005D14A68846C22F473
:10494800C00222434A601B0606D50268C16C536840
:1049580023F400230B43536010BD2DE9F041069D5D
:1049680004460F46164698462168CA6937EA020384
:104978000CBF01220022B24202D00020BDE8F08123
:10498800681CF2D0FBF794FEA0EB08008542206873
:10499800036800D38DB923F4D0730360836823F0D0
:1049A800010383602023C4F88030C4F884300023D6
:1049B800032084F87C30BDE8F0815A07D4D5C36958
:1049C8001B05D1D54FF400630362036823F4D07349
:1049D8000360836823F0010383602023C4F88030D8
:1049E800C4F88430C4F88830E1E72DE9F7439846E5
:1049F800D0F8803004460E46202B91464ED100292F
:104A08004AD0002A48D090F87C30012B46D00123A8
:104A1800002580F87C302123C0F88850C0F8803009
:104A2800FBF746FEA3680746A4F85490B3F5805FE9
:104A3800A4F8569003D123690BB935461E46B4F83D
:104A480056203B46CDF8008092B252B9402120460C
:104A5800FFF783FF58B9202384F87C00C4F880301E
:104A680006E0002280212046FFF777FF18B10320D7
:104A780003B0BDE8F08322685EB935F8023BC3F3A2
:104A880008039362B4F85630013B9BB2A4F8563041
:104A9800D5E716F8013BF4E70120E9E70220E7E74C
:104AA80073B500260446C0F88860FBF701FE23684A
:104AB80005461B681A0717D423681B685B070AD5C5
:104AC8006FF07E4300224FF48001204600932B466E
:104AD800FFF743FFA0B920230020C4F8803084F8F2
:104AE8007C00C4F884300CE06FF07E4332464FF40B
:104AF8000011009303462046FFF72FFF0028DBD064
:104B0800032002B070BD10B5044650B3D0F8803011
:104B18001BB980F87C3002F003FA2268242320466F
:104B2800C4F88030136823F001031360FEF788FE91
:104B3800012816D0A36A13B12046FFF7B9FE2368EF
:104B480020465A6822F490425A609A6822F02A0253
:104B58009A601A6842F00102BDE810401A60FFF737
:104B68009FBF012010BD1FB5032201230421022489
:104B78008DF8032007228DF800308DF804200022DC
:104B88008DF801308DF806208DF8072008228DF861
:104B980002308DF808208DF80C20426E8DF8053013
:104BA8008DF809108DF80A408DF80B108DF80D302E
:104BB8008DF80E308DF80F302AB9A0F86A30A0F8B9
:104BC800683004B010BD02689368916804AAC3F302
:104BD800426302EB517111F8102C11F8081CD20035
:104BE80092FBF1F2A0F86A2004AA134413F8102CDF
:104BF80013F8083CD20092FBF3F3E0E790F87C301E
:104C0800012B14D002682423C0F88030116813687F
:104C180021F0005123F00103136000234366116063
:104C2800202280F87C30C0F8802018467047022087
:104C3800704738B590F87C300446012B1BD001230F
:104C480080F87C302423C0F8803003681D681A6817
:104C580022F001021A609A6822F0604211439960BA
:104C6800FFF781FF03681D602023C0F88030002013
:104C780084F87C0038BD022038BD38B590F87C3007
:104C88000446012B1BD0012380F87C302423C0F874
:104C9800803003681D681A6822F001021A609A6859
:104CA80022F0606211439960FFF75DFF03681D60A1
:104CB8002023C0F88030002084F87C0038BD022012
:104CC80038BD0000124B4FF4FA521B68B3FBF2F2E6
:104CD80041F28833534313F1FF3315D3426B12F07B
:104CE800450FF8D09204F6D4436B5B0703D5042331
:104CF800836318467047436B13F0010301D0012307
:104D0800F6E7044A8263F4E74FF00043F1E700BF97
:104D18000C000020C50020000F4B4FF4FA521B680E
:104D2800B3FBF2F241F28833534313F1FF3310D34C
:104D3800426B12F0450FF8D09204F6D4436B13F08F
:104D4800040303D00423836318467047034A82632D
:104D5800FAE74FF0004070470C000020C500200023
:104D6800444B10B51B684FF4FA54B3FBF4F3424CB0
:104D78005A43002A49D0436B234208D09B0406D4E7
:104D8800436B5B0705D504238363184610BD013ABE
:104D9800EFE7436BDC0703D501238363012010BDD4
:104DA800364B83630369DBB29942F7D143693448D0
:104DB800184000285CD0002B2ADB5A002BD49C001A
:104DC8002BD4D9002BD41A012CD45C012DD4D901B1
:104DD8002ED41A022FD45C0230D4990231D4DA02CC
:104DE80032D45C0333D4990334D4DA0335D41C04A5
:104DF80036D4590437D49A0438D413F0080F0CBFAA
:104E08004FF480304FF4000010BD4FF0004010BD4B
:104E18004FF0007010BD402010BD802010BD4FF431
:104E2800807010BD4FF4007010BD4FF4806010BD4D
:104E38004FF4006010BD4FF4805010BD4FF4005087
:104E480010BD4FF4804010BD4FF4004010BD4FF42A
:104E5800003010BD4FF4802010BD4FF4002010BD6D
:104E68004FF4801010BD4FF4001010BD4FF48000B7
:104E780010BD00BF0C00002045002000C500200028
:104E880008E0FFFD84B010B503AC84E80E00049A76
:104E9800039B41681343059A1343069A1343079AE1
:104EA8001343044A0A40BDE81040134304B043606A
:104EB80000207047002CC0FFD0F8800070470B68B6
:104EC800C0F8803000207047036843F00303036094
:104ED80000207047006800F0030070470B688A687C
:104EE80010B583604B68C4681343CA6813430A69E2
:104EF8001343034A22401343C360002010BD00BF80
:104F0800C0E0FEFF1430405870470B6810B543628C
:104F18004B68CC6883628B68C26A23430C69496911
:104F280022F0FF0223430B431343C362002010BD4A
:104F380030B54FF4807387B01024054603930023DF
:104F4800019101A904934FF4805302940593FFF74C
:104F5800C5FF41F2883221462846FFF701FF07B016
:104F680030BD30B54FF4807387B0112405460393E4
:104F78000023019101A904934FF4805302940593EF
:104F8800FFF7ACFF41F2883221462846FFF7E8FEDA
:104F980007B030BD30B54FF4807387B01224054692
:104FA80003930023019101A904934FF480530294C1
:104FB8000593FFF793FF41F2883221462846FFF711
:104FC800CFFE07B030BD30B54FF4807387B01824DA
:104FD800054603930023019101A904934FF48053DC
:104FE80002940593FFF77AFF41F28832214628465A
:104FF800FFF7B6FE07B030BD30B54FF4807387B009
:105008001924054603930023019101A904934FF441
:10501800805302940593FFF761FF41F288322146DD
:105028002846FFF79DFE07B030BD000030B50023CD
:1050380087B004460C2501934FF4807204934FF413
:10504800805301A903920593C368029543F0800336
:10505800C360C36823F04003C360FFF73FFF074AFC
:1050680029462046FFF77CFEE368B0F1007F08BFC1
:10507800002023F08003E36007B030BD00E1F505B0
:1050880030B54FF4807387B0072405460393002397
:1050980001A9019204934FF4805302940593FFF7FA
:1050A8001DFF41F2883221462846FFF759FE07B016
:1050B80030BD000010B5002386B00446019301A955
:1050C8000293039304934FF480530593FFF706FF6D
:1050D8000B4B4FF4FA521B68B3FBF2F241F28833E0
:1050E800534313F1FF3307D3626B1206F9D5054B0F
:1050F8000020A36306B010BD4FF00040FAE700BFE0
:105108000C000020C500200010B54FF4D57386B000
:1051180004460193082301A902934FF48073039373
:10512800002304934FF480530593FFF7D7FE154BE4
:105138004FF4FA521B68B3FBF2F241F2883353433F
:1051480013F1FF331AD3626B12F0450FF8D09204B3
:10515800F6D4636B5B0703D50420A06306B010BDCB
:10516800626B12F0010201D00120F6E7606B10F0CB
:105178004000F3D040231046A363EFE74FF0004010
:10518800ECE700BF0C00002030B54FF4807387B007
:105198003724054603930023019101A904934FF492
:1051A800805302940593FFF799FE41F28832214615
:1051B8002846FFF7D5FD07B030BD10B5292386B0C6
:1051C800044602934FF48073019101A903930023CD
:1051D80004934FF480530593FFF780FE2046FFF7B2
:1051E8009BFD06B010BD30B5002387B033244FF4C3
:1051F80080720193054604934FF4805301A90392EA
:1052080005930294FFF76AFE41F288322146284648
:10521800FFF7A6FD07B030BD10B5002386B0022207
:105228000446019301A902924FF4407204934FF48B
:10523800805303920593FFF751FE2046FFF742FD86
:1052480006B010BD10B5092386B0044602934FF48A
:105258004073019101A90393002304934FF48053F1
:105268000593FFF73BFE2046FFF72CFD06B010BD67
:1052780030B5002387B003220D46019301A902929D
:105288004FF4807204934FF48053039204460593BD
:10529800FFF724FE1E4B4FF4FA521B68B3FBF2F2E1
:1052A80041F28833534313F1FF3328D3626B12F072
:1052B800450FF8D09204F6D4636B580703D5042041
:1052C800A06307B030BD636BD90701D50120F7E7AC
:1052D8002369DBB2032B15D10E4BA363636913F467
:1052E800604002D11B0C2B80EBE75A040CD413F45A
:1052F800004F0CBF4FF480304FF48050E1E74FF07F
:105308000040DEE70120DCE74FF40050D9E700BF9A
:105318000C000020C500200030B54FF4807387B022
:105328000D24054603930023019101A904934FF42A
:10533800805302940593FFF7D1FD41F2883221464C
:105348002846FFF70DFD07B030BD30B5002387B004
:105358000D244FF480720193054604934FF4805353
:1053680001A9039205930294FFF7B8FD41F2883230
:1053780021462846FFF7F4FC07B030BD30B54FF49E
:10538800807387B00624054603930023019101A981
:1053980004934FF4805302940593FFF79FFD41F265
:1053A800883221462846FFF7DBFC07B030BDFFF7FF
:1053B800E5BF30B5002387B00B244FF4807201930A
:1053C800054604934FF4805301A903920593029470
:1053D800FFF784FD41F2883221462846FFF7C0FCDA
:1053E80007B030BD0A4B013B01D103207047026969
:1053F800002AF8DA0369064A43F001030361013A17
:10540800F3D0036913F00103F9D11846704700BFC0
:10541800410D030084B038B505AD044685E80E009B
:105428000A9B012B26D1836B23F480338363C368E3
:1054380023F4840323F04003C360C36823F44013B8
:10544800C360119B012B03D1C36843F48013C3606D
:105458002046FFF7C7FF089B012B07D1A36843F03D
:105468000603A360A36843F02003A360BDE83840A7
:1054780004B07047C36843F04003C360FFF7B2FF4E
:105488000E9B23B9A36B43F48033A363E3E7A36BB9
:1054980023F48033F9E7836823F001038360002055
:1054A800704708B5C368012923F0C043C36008D119
:1054B800C36843F00053C3603220FBF7FFF80020B5
:1054C80008BD19B9C36843F08043F4E7012008BD5B
:1054D8008901074A41F020010161013A05D00369B9
:1054E80013F02003F9D1184670470320704700BF16
:1054F800410D03001023064A0361013A05D00369F0
:1055080013F01003F9D1184670470320704700BF05
:10551800410D0300D0F800381943C0F800180020E6
:105528007047000084B02DE9F843044609A80F46E7
:1055380080E80E000023139D194603F14002013351
:1055480004EB82020F2B5160F7D104F50066002DA1
:105558006CD1736843F002037360A36B23F40013E8
:10556800A363236843F040032360236843F0800368
:1055780023600023C4F8003ED4F80038C4F800388B
:105588000E9B012B59D10B99002954D12046FFF7C6
:10559800C1FF10212046FFF79BFF01462046FFF779
:1055A800A9FF00284BD1081C18BF0120002304F5CF
:1055B80010624FF0904E4FF0006C19464FF67F384E
:1055C80033617361F361BB423BD1002104F5306262
:1055D8004FF0904E4FF0006C0F464FF67F388B42DD
:1055E80042D1336923F4807333610023A3616FF0E0
:1055F800804363610C9B1BB9A36943F01003A3614B
:10560800A269234B1343A3610F9B1BB1A36943F00A
:105618000803A361012D05D1A36943F0804343F03A
:105628000403A361BDE8F84304B07047A36B43F4D7
:105638000013A3639DE71946A8E70321A6E7012005
:10564800B4E7D2F80090B9F1000F0BDA3BB9C2F811
:1056580000C011610133C2F808802032B3E7C2F8F4
:1056680000E0F6E71160F4E7D2F80090B9F1000F16
:105678000BDA39B9C2F800C017610131C2F80880E5
:105688002032ACE7C2F800E0F6E71760F4E700BFA5
:1056980000383C8008B5D0F8043843F00203C0F85D
:1056A80004380320FBF70AF8002008BD034B1A183A
:1056B80003EB80035B68107A5B68184718010020C9
:1056C800064B1A5C42B901221A541A1803EB8003DC
:1056D800107A5B681B681847002070471801002083
:1056E80030B4054C251804EB800460688468287A77
:1056F800A44630BC604700BF1801002030B4054CF8
:10570800251804EB80046068C468287AA44630BC75
:10571800604700BF1801002042884378007843EAB8
:10572800022340EA032070470B0A017043700B0CF8
:10573800090E8370C1707047024400F8011B904243
:10574800FBD17047F0B5154B00251C462A461E684C
:10575800A6B10768BE4212D15F688668B7420ED10B
:105768009F684669B7420AD1A9B904EB0212938926
:10577800B3F5807F14BF00201020F0BD0125013251
:105788001033022AE3D10DB10020F0BD02290CBF6D
:1057980000201220F0BD1020F0BD00BFF400002052
:1057A8001B4A0023F0B5056816461468AC4207D1B9
:1057B80057688468A74203D197684469A7421CD0F8
:1057C80001331032022BF0D1336813B13369EBB9CE
:1057D80001231C0132193551846840695460906076
:1057E8000020908179B906EB03129289013292B2B6
:1057F80006EB0316581CB281F0BD0029F3D006EB66
:105808000312928912B94FF48072F1E70020F0BDBB
:10581800F400002043690239023B99423DBF4389A5
:10582800806A01FB0300002070470268490AC36AC6
:1058380052890433B1FBF2F1186830B1814202D3C6
:10584800091A0833F8E7586808447047026810B521
:1058580052B111460B4611F8014B202C0CD93A2CA9
:10586800F8D1511C8B4202D04FF0FF3010BD127896
:10587800302AF9D101330360002010BD38B50D4638
:10588800044618B9092000232B6038BD0368002B93
:10589800F8D01A78002AF5D08188DA889142F1D1B7
:1058A8005878FFF703FF10F00100EBD12368EBE70E
:1058B80001380A4411F8013B914200F8013FF9D13F
:1058C80070470328CA7E8B7E08BF487D43EA0223BF
:1058D80002BF0A7D42EA002243EA024318467047A3
:1058E800C2F307238A76CB760378032B01BF120C09
:1058F8000A75120A4A757047F8B5C56A00F130078B
:10590800044601232A4639464078FFF7F7FEA0B936
:10591800236AA269EB1AE070934201D30020F8BD14
:10592800A678012EFAD9A36939466078013E1D444C
:1059380001232A46FFF7E2FEF3E70120F8BDC3780A
:105948000BB1FFF7D9BF18467047C36A8B4270B5D1
:1059580006460D4612D0FFF7F2FF044660B92A4604
:10596800012306F130017078FFF7BAFE00281CBF4A
:105978004FF0FF350124F562204670BD0024FBE797
:10598800002310B5C3704FF0FF330446C362FFF71E
:10599800DCFF30BB94F82F2294F82E3243EA02231E
:1059A8004AF6552293421ED194F83030E92B05D09F
:1059B800236B104A03F0FF13934216D104F16600DB
:1059C800FFF7AAFE0C4B20F07F4098420FD004F15D
:1059D8008200FFF7A1FE094B984214BF0220002065
:1059E80010BD042010BD032010BD022010BD0020F2
:1059F80010BD00BFEB0090004641540046415433AF
:105A080000232DE9F0430B6085B00F461546FFF7DC
:105A18001DFF061EC0F23D81A24B53F82640002C04
:105A280000F039813C6005F0FE05237873B1607899
:105A3800FFF73CFEC10709D4002D00F02E8110F0BD
:105A4800040000D00A2005B0BDE8F0830023F0B2BE
:105A580023706070FFF734FEC20700F120810DB19A
:105A68004307EFD400212046FFF78AFF022840F0C1
:105A7800F58004F5FB75002115F8040C10B12846D3
:105A8800FFF74AFE4DF82100013110350429F3D102
:105A980000255DF82560002E00F0D78031462046AD
:105AA800FFF76EFF012800F2D18094F83C2094F8AB
:105AB8003B3043EA0223B3F5007F40F0D38094F8EB
:105AC800473094F8465055EA032504D104F15400B0
